{
  "_format": "hh-sol-artifact-1",
  "contractName": "HTLCMultiSig",
  "sourceName": "contracts/HTLCMultiSig.sol",
  "abi": [
    {
      "inputs": [],
      "name": "ECDSAInvalidSignature",
      "type": "error"
    },
    {
      "inputs": [
        {
          "internalType": "uint256",
          "name": "length",
          "type": "uint256"
        }
      ],
      "name": "ECDSAInvalidSignatureLength",
      "type": "error"
    },
    {
      "inputs": [
        {
          "internalType": "bytes32",
          "name": "s",
          "type": "bytes32"
        }
      ],
      "name": "ECDSAInvalidSignatureS",
      "type": "error"
    },
    {
      "inputs": [],
      "name": "ReentrancyGuardReentrantCall",
      "type": "error"
    },
    {
      "anonymous": false,
      "inputs": [
        {
          "indexed": true,
          "internalType": "bytes32",
          "name": "tradeId",
          "type": "bytes32"
        },
        {
          "indexed": false,
          "internalType": "address",
          "name": "buyer",
          "type": "address"
        },
        {
          "indexed": false,
          "internalType": "address",
          "name": "seller",
          "type": "address"
        },
        {
          "indexed": false,
          "internalType": "uint256",
          "name": "amount",
          "type": "uint256"
        },
        {
          "indexed": false,
          "internalType": "bytes32",
          "name": "hashLock",
          "type": "bytes32"
        },
        {
          "indexed": false,
          "internalType": "uint256",
          "name": "timelock",
          "type": "uint256"
        }
      ],
      "name": "Locked",
      "type": "event"
    },
    {
      "anonymous": false,
      "inputs": [
        {
          "indexed": true,
          "internalType": "bytes32",
          "name": "tradeId",
          "type": "bytes32"
        },
        {
          "indexed": false,
          "internalType": "address",
          "name": "recipient",
          "type": "address"
        }
      ],
      "name": "Refunded",
      "type": "event"
    },
    {
      "anonymous": false,
      "inputs": [
        {
          "indexed": true,
          "internalType": "bytes32",
          "name": "tradeId",
          "type": "bytes32"
        },
        {
          "indexed": false,
          "internalType": "address",
          "name": "recipient",
          "type": "address"
        },
        {
          "indexed": false,
          "internalType": "string",
          "name": "method",
          "type": "string"
        }
      ],
      "name": "Withdrawn",
      "type": "event"
    },
    {
      "inputs": [
        {
          "internalType": "bytes32",
          "name": "_tradeId",
          "type": "bytes32"
        },
        {
          "internalType": "address",
          "name": "_seller",
          "type": "address"
        },
        {
          "internalType": "address",
          "name": "_arbiter",
          "type": "address"
        },
        {
          "internalType": "bytes32",
          "name": "_hashLock",
          "type": "bytes32"
        },
        {
          "internalType": "uint256",
          "name": "_lockTime",
          "type": "uint256"
        }
      ],
      "name": "lock",
      "outputs": [],
      "stateMutability": "payable",
      "type": "function"
    },
    {
      "inputs": [
        {
          "internalType": "bytes32",
          "name": "_tradeId",
          "type": "bytes32"
        }
      ],
      "name": "refund",
      "outputs": [],
      "stateMutability": "nonpayable",
      "type": "function"
    },
    {
      "inputs": [
        {
          "internalType": "bytes32",
          "name": "_tradeId",
          "type": "bytes32"
        },
        {
          "internalType": "address",
          "name": "_recipient",
          "type": "address"
        },
        {
          "internalType": "bytes",
          "name": "_sig1",
          "type": "bytes"
        },
        {
          "internalType": "bytes",
          "name": "_sig2",
          "type": "bytes"
        }
      ],
      "name": "resolveDispute",
      "outputs": [],
      "stateMutability": "nonpayable",
      "type": "function"
    },
    {
      "inputs": [
        {
          "internalType": "bytes32",
          "name": "",
          "type": "bytes32"
        }
      ],
      "name": "trades",
      "outputs": [
        {
          "internalType": "address",
          "name": "buyer",
          "type": "address"
        },
        {
          "internalType": "address",
          "name": "seller",
          "type": "address"
        },
        {
          "internalType": "address",
          "name": "arbiter",
          "type": "address"
        },
        {
          "internalType": "uint256",
          "name": "amount",
          "type": "uint256"
        },
        {
          "internalType": "bytes32",
          "name": "hashLock",
          "type": "bytes32"
        },
        {
          "internalType": "uint256",
          "name": "timelock",
          "type": "uint256"
        },
        {
          "internalType": "enum HTLCMultiSig.Status",
          "name": "status",
          "type": "uint8"
        }
      ],
      "stateMutability": "view",
      "type": "function"
    },
    {
      "inputs": [
        {
          "internalType": "bytes32",
          "name": "_tradeId",
          "type": "bytes32"
        },
        {
          "internalType": "bytes32",
          "name": "_preimage",
          "type": "bytes32"
        },
        {
          "internalType": "bytes",
          "name": "_sig1",
          "type": "bytes"
        },
        {
          "internalType": "bytes",
          "name": "_sig2",
          "type": "bytes"
        }
      ],
      "name": "withdrawWithPreimage",
      "outputs": [],
      "stateMutability": "nonpayable",
      "type": "function"
    }
  ],
  "bytecode": "0x608060405234801561001057600080fd5b506001600081905550612297806100286000396000f3fe6080604052600436106100495760003560e01c80621624201461004e5780637249fbb6146100915780637e3c30f6146100ba578063a336aabf146100e3578063cb877a47146100ff575b600080fd5b34801561005a57600080fd5b50610075600480360381019061007091906115e3565b610128565b60405161008897969594939291906116f0565b60405180910390f35b34801561009d57600080fd5b506100b860048036038101906100b391906115e3565b6101d7565b005b3480156100c657600080fd5b506100e160048036038101906100dc91906117c4565b6103b9565b005b6100fd60048036038101906100f891906118c3565b610896565b005b34801561010b57600080fd5b506101266004803603810190610121919061193e565b610c35565b005b60016020528060005260406000206000915090508060000160009054906101000a900473ffffffffffffffffffffffffffffffffffffffff16908060010160009054906101000a900473ffffffffffffffffffffffffffffffffffffffff16908060020160009054906101000a900473ffffffffffffffffffffffffffffffffffffffff16908060030154908060040154908060050154908060060160009054906101000a900460ff16905087565b6101df61123d565b60006001600083815260200190815260200160002090506001600381111561020a57610209611679565b5b8160060160009054906101000a900460ff16600381111561022e5761022d611679565b5b1461026e576040517f08c379a000000000000000000000000000000000000000000000000000000000815260040161026590611a42565b60405180910390fd5b80600501544210156102b5576040517f08c379a00000000000000000000000000000000000000000000000000000000081526004016102ac90611aae565b60405180910390fd5b60038160060160006101000a81548160ff021916908360038111156102dd576102dc611679565b5b02179055508060000160009054906101000a900473ffffffffffffffffffffffffffffffffffffffff1673ffffffffffffffffffffffffffffffffffffffff166108fc82600301549081150290604051600060405180830381858888f19350505050158015610350573d6000803e3d6000fd5b50817f5e9f0820fcfb53b644becb775b651bae68c337106f21433e526551d1e02c1c0e8260000160009054906101000a900473ffffffffffffffffffffffffffffffffffffffff166040516103a59190611ace565b60405180910390a2506103b6611283565b50565b6103c161123d565b6000600160008881526020019081526020016000209050600160038111156103ec576103eb611679565b5b8160060160009054906101000a900460ff1660038111156104105761040f611679565b5b14610450576040517f08c379a000000000000000000000000000000000000000000000000000000000815260040161044790611a42565b60405180910390fd5b80600401546002876040516020016104689190611b0a565b6040516020818303038152906040526040516104849190611b96565b602060405180830381855afa1580156104a1573d6000803e3d6000fd5b5050506040513d601f19601f820116820180604052508101906104c49190611bc2565b14610504576040517f08c379a00000000000000000000000000000000000000000000000000000000081526004016104fb90611c3b565b60405180910390fd5b6000610537888860405160200161051c929190611c5b565b6040516020818303038152906040528051906020012061128d565b905060006105898288888080601f016020809104026020016040519081016040528093929190818152602001838380828437600081840152601f19601f820116905080830192505050505050506112c3565b905060006105db8387878080601f016020809104026020016040519081016040528093929190818152602001838380828437600081840152601f19601f820116905080830192505050505050506112c3565b905060008460000160009054906101000a900473ffffffffffffffffffffffffffffffffffffffff1673ffffffffffffffffffffffffffffffffffffffff168373ffffffffffffffffffffffffffffffffffffffff16148061068c57508460000160009054906101000a900473ffffffffffffffffffffffffffffffffffffffff1673ffffffffffffffffffffffffffffffffffffffff168273ffffffffffffffffffffffffffffffffffffffff16145b905060008560010160009054906101000a900473ffffffffffffffffffffffffffffffffffffffff1673ffffffffffffffffffffffffffffffffffffffff168473ffffffffffffffffffffffffffffffffffffffff16148061073d57508560010160009054906101000a900473ffffffffffffffffffffffffffffffffffffffff1673ffffffffffffffffffffffffffffffffffffffff168373ffffffffffffffffffffffffffffffffffffffff16145b90508180156107495750805b610788576040517f08c379a000000000000000000000000000000000000000000000000000000000815260040161077f90611cf9565b60405180910390fd5b60028660060160006101000a81548160ff021916908360038111156107b0576107af611679565b5b02179055508560010160009054906101000a900473ffffffffffffffffffffffffffffffffffffffff1673ffffffffffffffffffffffffffffffffffffffff166108fc87600301549081150290604051600060405180830381858888f19350505050158015610823573d6000803e3d6000fd5b508b7f5adaf63ad64730cfe59e957dd6a914b99f4e0fb899ddaa434d7a42b53a95ccd38760010160009054906101000a900473ffffffffffffffffffffffffffffffffffffffff166040516108789190611d65565b60405180910390a250505050505061088e611283565b505050505050565b600034116108d9576040517f08c379a00000000000000000000000000000000000000000000000000000000081526004016108d090611ddf565b60405180910390fd5b600060038111156108ed576108ec611679565b5b6001600087815260200190815260200160002060060160009054906101000a900460ff16600381111561092357610922611679565b5b14610963576040517f08c379a000000000000000000000000000000000000000000000000000000000815260040161095a90611e4b565b60405180910390fd5b600073ffffffffffffffffffffffffffffffffffffffff168473ffffffffffffffffffffffffffffffffffffffff16141580156109cd5750600073ffffffffffffffffffffffffffffffffffffffff168373ffffffffffffffffffffffffffffffffffffffff1614155b610a0c576040517f08c379a0000000000000000000000000000000000000000000000000000000008152600401610a0390611eb7565b60405180910390fd5b6040518060e001604052803373ffffffffffffffffffffffffffffffffffffffff1681526020018573ffffffffffffffffffffffffffffffffffffffff1681526020018473ffffffffffffffffffffffffffffffffffffffff1681526020013481526020018381526020018242610a839190611f06565b815260200160016003811115610a9c57610a9b611679565b5b8152506001600087815260200190815260200160002060008201518160000160006101000a81548173ffffffffffffffffffffffffffffffffffffffff021916908373ffffffffffffffffffffffffffffffffffffffff16021790555060208201518160010160006101000a81548173ffffffffffffffffffffffffffffffffffffffff021916908373ffffffffffffffffffffffffffffffffffffffff16021790555060408201518160020160006101000a81548173ffffffffffffffffffffffffffffffffffffffff021916908373ffffffffffffffffffffffffffffffffffffffff160217905550606082015181600301556080820151816004015560a0820151816005015560c08201518160060160006101000a81548160ff02191690836003811115610bd057610bcf611679565b5b0217905550905050847f578af4d125bb96ec89cd1ade591cb196f35d15047d5b096c478e45e311d8426333863486600160008c815260200190815260200160002060050154604051610c26959493929190611f3a565b60405180910390a25050505050565b610c3d61123d565b600060016000888152602001908152602001600020905060016003811115610c6857610c67611679565b5b8160060160009054906101000a900460ff166003811115610c8c57610c8b611679565b5b14610ccc576040517f08c379a0000000000000000000000000000000000000000000000000000000008152600401610cc390611a42565b60405180910390fd5b8060000160009054906101000a900473ffffffffffffffffffffffffffffffffffffffff1673ffffffffffffffffffffffffffffffffffffffff168673ffffffffffffffffffffffffffffffffffffffff161480610d7957508060010160009054906101000a900473ffffffffffffffffffffffffffffffffffffffff1673ffffffffffffffffffffffffffffffffffffffff168673ffffffffffffffffffffffffffffffffffffffff16145b610db8576040517f08c379a0000000000000000000000000000000000000000000000000000000008152600401610daf90611fd9565b60405180910390fd5b6000610deb8888604051602001610dd0929190612041565b6040516020818303038152906040528051906020012061128d565b90506000610e3d8288888080601f016020809104026020016040519081016040528093929190818152602001838380828437600081840152601f19601f820116905080830192505050505050506112c3565b90506000610e8f8387878080601f016020809104026020016040519081016040528093929190818152602001838380828437600081840152601f19601f820116905080830192505050505050506112c3565b905060008060405180606001604052808760000160009054906101000a900473ffffffffffffffffffffffffffffffffffffffff1673ffffffffffffffffffffffffffffffffffffffff1673ffffffffffffffffffffffffffffffffffffffff1681526020018760010160009054906101000a900473ffffffffffffffffffffffffffffffffffffffff1673ffffffffffffffffffffffffffffffffffffffff1673ffffffffffffffffffffffffffffffffffffffff1681526020018760020160009054906101000a900473ffffffffffffffffffffffffffffffffffffffff1673ffffffffffffffffffffffffffffffffffffffff1673ffffffffffffffffffffffffffffffffffffffff16815250905060008060405180604001604052808773ffffffffffffffffffffffffffffffffffffffff1673ffffffffffffffffffffffffffffffffffffffff1681526020018673ffffffffffffffffffffffffffffffffffffffff1673ffffffffffffffffffffffffffffffffffffffff16815250905060005b60028110156111305760005b600381101561111c5784816003811061103e5761103d61206d565b5b602002015173ffffffffffffffffffffffffffffffffffffffff1683836002811061106c5761106b61206d565b5b602002015173ffffffffffffffffffffffffffffffffffffffff161480156110d757508373ffffffffffffffffffffffffffffffffffffffff168383600281106110b9576110b861206d565b5b602002015173ffffffffffffffffffffffffffffffffffffffff1614155b156111095785806110e79061209c565b9650508282600281106110fd576110fc61206d565b5b6020020151935061111c565b80806111149061209c565b915050611022565b5080806111289061209c565b915050611016565b506002841015611175576040517f08c379a000000000000000000000000000000000000000000000000000000000815260040161116c90612130565b60405180910390fd5b60028860060160006101000a81548160ff0219169083600381111561119d5761119c611679565b5b02179055508c73ffffffffffffffffffffffffffffffffffffffff166108fc89600301549081150290604051600060405180830381858888f193505050501580156111ec573d6000803e3d6000fd5b508d7f5adaf63ad64730cfe59e957dd6a914b99f4e0fb899ddaa434d7a42b53a95ccd38e60405161121d919061219c565b60405180910390a25050505050505050611235611283565b505050505050565b600260005403611279576040517f3ee5aeb500000000000000000000000000000000000000000000000000000000815260040160405180910390fd5b6002600081905550565b6001600081905550565b60007f19457468657265756d205369676e6564204d6573736167653a0a33320000000060005281601c52603c6000209050919050565b6000806000806112d386866112ef565b9250925092506112e3828261134b565b82935050505092915050565b600080600060418451036113345760008060006020870151925060408701519150606087015160001a9050611326888285856114af565b955095509550505050611344565b60006002855160001b9250925092505b9250925092565b6000600381111561135f5761135e611679565b5b82600381111561137257611371611679565b5b03156114ab576001600381111561138c5761138b611679565b5b82600381111561139f5761139e611679565b5b036113d6576040517ff645eedf00000000000000000000000000000000000000000000000000000000815260040160405180910390fd5b600260038111156113ea576113e9611679565b5b8260038111156113fd576113fc611679565b5b03611442578060001c6040517ffce698f700000000000000000000000000000000000000000000000000000000815260040161143991906121ca565b60405180910390fd5b60038081111561145557611454611679565b5b82600381111561146857611467611679565b5b036114aa57806040517fd78bce0c0000000000000000000000000000000000000000000000000000000081526004016114a191906121e5565b60405180910390fd5b5b5050565b60008060007f7fffffffffffffffffffffffffffffff5d576e7357a4501ddfe92f46681b20a08460001c11156114ef576000600385925092509250611599565b600060018888888860405160008152602001604052604051611514949392919061221c565b6020604051602081039080840390855afa158015611536573d6000803e3d6000fd5b505050602060405103519050600073ffffffffffffffffffffffffffffffffffffffff168173ffffffffffffffffffffffffffffffffffffffff160361158a57600060016000801b93509350935050611599565b8060008060001b935093509350505b9450945094915050565b600080fd5b600080fd5b6000819050919050565b6115c0816115ad565b81146115cb57600080fd5b50565b6000813590506115dd816115b7565b92915050565b6000602082840312156115f9576115f86115a3565b5b6000611607848285016115ce565b91505092915050565b600073ffffffffffffffffffffffffffffffffffffffff82169050919050565b600061163b82611610565b9050919050565b61164b81611630565b82525050565b6000819050919050565b61166481611651565b82525050565b611673816115ad565b82525050565b7f4e487b7100000000000000000000000000000000000000000000000000000000600052602160045260246000fd5b600481106116b9576116b8611679565b5b50565b60008190506116ca826116a8565b919050565b60006116da826116bc565b9050919050565b6116ea816116cf565b82525050565b600060e082019050611705600083018a611642565b6117126020830189611642565b61171f6040830188611642565b61172c606083018761165b565b611739608083018661166a565b61174660a083018561165b565b61175360c08301846116e1565b98975050505050505050565b600080fd5b600080fd5b600080fd5b60008083601f8401126117845761178361175f565b5b8235905067ffffffffffffffff8111156117a1576117a0611764565b5b6020830191508360018202830111156117bd576117bc611769565b5b9250929050565b600080600080600080608087890312156117e1576117e06115a3565b5b60006117ef89828a016115ce565b965050602061180089828a016115ce565b955050604087013567ffffffffffffffff811115611821576118206115a8565b5b61182d89828a0161176e565b9450945050606087013567ffffffffffffffff8111156118505761184f6115a8565b5b61185c89828a0161176e565b92509250509295509295509295565b61187481611630565b811461187f57600080fd5b50565b6000813590506118918161186b565b92915050565b6118a081611651565b81146118ab57600080fd5b50565b6000813590506118bd81611897565b92915050565b600080600080600060a086880312156118df576118de6115a3565b5b60006118ed888289016115ce565b95505060206118fe88828901611882565b945050604061190f88828901611882565b9350506060611920888289016115ce565b9250506080611931888289016118ae565b9150509295509295909350565b6000806000806000806080878903121561195b5761195a6115a3565b5b600061196989828a016115ce565b965050602061197a89828a01611882565b955050604087013567ffffffffffffffff81111561199b5761199a6115a8565b5b6119a789828a0161176e565b9450945050606087013567ffffffffffffffff8111156119ca576119c96115a8565b5b6119d689828a0161176e565b92509250509295509295509295565b600082825260208201905092915050565b7f496e76616c696420737461747573000000000000000000000000000000000000600082015250565b6000611a2c600e836119e5565b9150611a37826119f6565b602082019050919050565b60006020820190508181036000830152611a5b81611a1f565b9050919050565b7f54696d656c6f636b206e6f742065787069726564000000000000000000000000600082015250565b6000611a986014836119e5565b9150611aa382611a62565b602082019050919050565b60006020820190508181036000830152611ac781611a8b565b9050919050565b6000602082019050611ae36000830184611642565b92915050565b6000819050919050565b611b04611aff826115ad565b611ae9565b82525050565b6000611b168284611af3565b60208201915081905092915050565b600081519050919050565b600081905092915050565b60005b83811015611b59578082015181840152602081019050611b3e565b60008484015250505050565b6000611b7082611b25565b611b7a8185611b30565b9350611b8a818560208601611b3b565b80840191505092915050565b6000611ba28284611b65565b915081905092915050565b600081519050611bbc816115b7565b92915050565b600060208284031215611bd857611bd76115a3565b5b6000611be684828501611bad565b91505092915050565b7f496e76616c696420707265696d61676500000000000000000000000000000000600082015250565b6000611c256010836119e5565b9150611c3082611bef565b602082019050919050565b60006020820190508181036000830152611c5481611c18565b9050919050565b6000611c678285611af3565b602082019150611c778284611af3565b6020820191508190509392505050565b7f4d697373696e67207265717569726564207369676e6174757265732066726f6d60008201527f20627579657220616e642073656c6c6572000000000000000000000000000000602082015250565b6000611ce36031836119e5565b9150611cee82611c87565b604082019050919050565b60006020820190508181036000830152611d1281611cd6565b9050919050565b7f507265696d616765202b204d756c746953696700000000000000000000000000600082015250565b6000611d4f6013836119e5565b9150611d5a82611d19565b602082019050919050565b6000604082019050611d7a6000830184611642565b8181036020830152611d8b81611d42565b905092915050565b7f416d6f756e74206d7573742062652067726561746572207468616e2030000000600082015250565b6000611dc9601d836119e5565b9150611dd482611d93565b602082019050919050565b60006020820190508181036000830152611df881611dbc565b9050919050565b7f547261646520494420616c726561647920657869737473000000000000000000600082015250565b6000611e356017836119e5565b9150611e4082611dff565b602082019050919050565b60006020820190508181036000830152611e6481611e28565b9050919050565b7f496e76616c696420616464726573736573000000000000000000000000000000600082015250565b6000611ea16011836119e5565b9150611eac82611e6b565b602082019050919050565b60006020820190508181036000830152611ed081611e94565b9050919050565b7f4e487b7100000000000000000000000000000000000000000000000000000000600052601160045260246000fd5b6000611f1182611651565b9150611f1c83611651565b9250828201905080821115611f3457611f33611ed7565b5b92915050565b600060a082019050611f4f6000830188611642565b611f5c6020830187611642565b611f69604083018661165b565b611f76606083018561166a565b611f83608083018461165b565b9695505050505050565b7f496e76616c696420726563697069656e74000000000000000000000000000000600082015250565b6000611fc36011836119e5565b9150611fce82611f8d565b602082019050919050565b60006020820190508181036000830152611ff281611fb6565b9050919050565b60008160601b9050919050565b600061201182611ff9565b9050919050565b600061202382612006565b9050919050565b61203b61203682611630565b612018565b82525050565b600061204d8285611af3565b60208201915061205d828461202a565b6014820191508190509392505050565b7f4e487b7100000000000000000000000000000000000000000000000000000000600052603260045260246000fd5b60006120a782611651565b91507fffffffffffffffffffffffffffffffffffffffffffffffffffffffffffffffff82036120d9576120d8611ed7565b5b600182019050919050565b7f4e65656420322d6f662d33207369676e61747572657300000000000000000000600082015250565b600061211a6016836119e5565b9150612125826120e4565b602082019050919050565b600060208201905081810360008301526121498161210d565b9050919050565b7f4172626974726174696f6e000000000000000000000000000000000000000000600082015250565b6000612186600b836119e5565b915061219182612150565b602082019050919050565b60006040820190506121b16000830184611642565b81810360208301526121c281612179565b905092915050565b60006020820190506121df600083018461165b565b92915050565b60006020820190506121fa600083018461166a565b92915050565b600060ff82169050919050565b61221681612200565b82525050565b6000608082019050612231600083018761166a565b61223e602083018661220d565b61224b604083018561166a565b612258606083018461166a565b9594505050505056fea2646970667358221220b7f97b0cef7b7fa383c2b8ecdc0e3383f5d80926c423c143a3ae3f7ca0fa1fc964736f6c63430008140033",
  "linkReferences": {},
  "deployedLinkReferences": {}
}